{
    "_format": "hh-sol-artifact-1",
    "contractName": "WavePortal",
    "sourceName": "contracts/WavePortal.sol",
    "abi": [
        {
            "inputs": [],
            "stateMutability": "nonpayable",
            "type": "constructor"
        },
        {
            "inputs": [
                {
                    "internalType": "address",
                    "name": "sender",
                    "type": "address"
                },
                {
                    "internalType": "uint256",
                    "name": "timesSent",
                    "type": "uint256"
                }
            ],
            "name": "displayWaveTally",
            "outputs": [],
            "stateMutability": "view",
            "type": "function"
        },
        {
            "inputs": [],
            "name": "getTotalWaves",
            "outputs": [
                {
                    "internalType": "uint256",
                    "name": "",
                    "type": "uint256"
                }
            ],
            "stateMutability": "view",
            "type": "function"
        },
        {
            "inputs": [],
            "name": "wave",
            "outputs": [],
            "stateMutability": "nonpayable",
            "type": "function"
        }
    ],
    "bytecode": "0x608060405234801561001057600080fd5b506100596040518060400160405280600881526020017f48656c6c6f203a2900000000000000000000000000000000000000000000000081525061005e60201b6102ae1760201c565b6101e1565b6100fa81604051602401610072919061015f565b6040516020818303038152906040527f41304fac000000000000000000000000000000000000000000000000000000007bffffffffffffffffffffffffffffffffffffffffffffffffffffffff19166020820180517bffffffffffffffffffffffffffffffffffffffffffffffffffffffff83818316178352505050506100fd60201b60201c565b50565b60008151905060006a636f6e736f6c652e6c6f679050602083016000808483855afa5050505050565b600061013182610181565b61013b818561018c565b935061014b81856020860161019d565b610154816101d0565b840191505092915050565b600060208201905081810360008301526101798184610126565b905092915050565b600081519050919050565b600082825260208201905092915050565b60005b838110156101bb5780820151818401526020810190506101a0565b838111156101ca576000848401525b50505050565b6000601f19601f8301169050919050565b6108ad806101f06000396000f3fe608060405234801561001057600080fd5b50600436106100415760003560e01c806330383464146100465780636fe15b44146100625780639a2cdc081461006c575b600080fd5b610060600480360381019061005b9190610571565b61008a565b005b61006a6100ce565b005b610074610263565b60405161008191906106c4565b60405180910390f35b6100ca6040518060400160405280601581526020017f2573206861732077617665642025642074696d657300000000000000000000008152508383610347565b5050565b61010d6040518060400160405280600c81526020017f2573206973207761766564210000000000000000000000000000000000000000815250336103e6565b600160008082825461011f91906106fb565b925050819055506001339080600181540180825580915050600190039060005260206000200160009091909190916101000a81548173ffffffffffffffffffffffffffffffffffffffff021916908373ffffffffffffffffffffffffffffffffffffffff1602179055506000805b600180549050811015610255573373ffffffffffffffffffffffffffffffffffffffff16600182815481106101eb577f4e487b7100000000000000000000000000000000000000000000000000000000600052603260045260246000fd5b9060005260206000200160009054906101000a900473ffffffffffffffffffffffffffffffffffffffff1673ffffffffffffffffffffffffffffffffffffffff1614156102425760018261023f91906106fb565b91505b808061024d906107c0565b91505061018d565b50610260338261008a565b50565b60006102a66040518060400160405280601681526020017f5765206861766520256420746f74616c20776176657300000000000000000000815250600054610482565b600054905090565b610344816040516024016102c29190610604565b6040516020818303038152906040527f41304fac000000000000000000000000000000000000000000000000000000007bffffffffffffffffffffffffffffffffffffffffffffffffffffffff19166020820180517bffffffffffffffffffffffffffffffffffffffffffffffffffffffff838183161783525050505061051e565b50565b6103e183838360405160240161035f93929190610656565b6040516020818303038152906040527f07c81217000000000000000000000000000000000000000000000000000000007bffffffffffffffffffffffffffffffffffffffffffffffffffffffff19166020820180517bffffffffffffffffffffffffffffffffffffffffffffffffffffffff838183161783525050505061051e565b505050565b61047e82826040516024016103fc929190610626565b6040516020818303038152906040527f319af333000000000000000000000000000000000000000000000000000000007bffffffffffffffffffffffffffffffffffffffffffffffffffffffff19166020820180517bffffffffffffffffffffffffffffffffffffffffffffffffffffffff838183161783525050505061051e565b5050565b61051a8282604051602401610498929190610694565b6040516020818303038152906040527f9710a9d0000000000000000000000000000000000000000000000000000000007bffffffffffffffffffffffffffffffffffffffffffffffffffffffff19166020820180517bffffffffffffffffffffffffffffffffffffffffffffffffffffffff838183161783525050505061051e565b5050565b60008151905060006a636f6e736f6c652e6c6f679050602083016000808483855afa5050505050565b60008135905061055681610849565b92915050565b60008135905061056b81610860565b92915050565b6000806040838503121561058457600080fd5b600061059285828601610547565b92505060206105a38582860161055c565b9150509250929050565b6105b681610751565b82525050565b60006105c7826106df565b6105d181856106ea565b93506105e181856020860161078d565b6105ea81610838565b840191505092915050565b6105fe81610783565b82525050565b6000602082019050818103600083015261061e81846105bc565b905092915050565b6000604082019050818103600083015261064081856105bc565b905061064f60208301846105ad565b9392505050565b6000606082019050818103600083015261067081866105bc565b905061067f60208301856105ad565b61068c60408301846105f5565b949350505050565b600060408201905081810360008301526106ae81856105bc565b90506106bd60208301846105f5565b9392505050565b60006020820190506106d960008301846105f5565b92915050565b600081519050919050565b600082825260208201905092915050565b600061070682610783565b915061071183610783565b9250827fffffffffffffffffffffffffffffffffffffffffffffffffffffffffffffffff0382111561074657610745610809565b5b828201905092915050565b600061075c82610763565b9050919050565b600073ffffffffffffffffffffffffffffffffffffffff82169050919050565b6000819050919050565b60005b838110156107ab578082015181840152602081019050610790565b838111156107ba576000848401525b50505050565b60006107cb82610783565b91507fffffffffffffffffffffffffffffffffffffffffffffffffffffffffffffffff8214156107fe576107fd610809565b5b600182019050919050565b7f4e487b7100000000000000000000000000000000000000000000000000000000600052601160045260246000fd5b6000601f19601f8301169050919050565b61085281610751565b811461085d57600080fd5b50565b61086981610783565b811461087457600080fd5b5056fea26469706673582212209985dc35433f3a7b3496919880c22ae7c833cc7fc4aed98975f957b2625f269864736f6c63430008040033",
    "linkReferences": {},
    "deployedLinkReferences": {}
}